{
  "contractName": "EHR",
  "abi": [
    {
      "inputs": [],
      "name": "patientCount",
      "outputs": [
        {
          "internalType": "uint256",
          "name": "",
          "type": "uint256"
        }
      ],
      "stateMutability": "view",
      "type": "function",
      "constant": true
    },
    {
      "inputs": [
        {
          "internalType": "uint256",
          "name": "",
          "type": "uint256"
        }
      ],
      "name": "patients",
      "outputs": [
        {
          "internalType": "uint256",
          "name": "id",
          "type": "uint256"
        },
        {
          "internalType": "string",
          "name": "name",
          "type": "string"
        },
        {
          "internalType": "uint256",
          "name": "age",
          "type": "uint256"
        },
        {
          "internalType": "string",
          "name": "gender",
          "type": "string"
        },
        {
          "internalType": "string",
          "name": "bloodType",
          "type": "string"
        }
      ],
      "stateMutability": "view",
      "type": "function",
      "constant": true
    },
    {
      "inputs": [],
      "name": "reportCount",
      "outputs": [
        {
          "internalType": "uint256",
          "name": "",
          "type": "uint256"
        }
      ],
      "stateMutability": "view",
      "type": "function",
      "constant": true
    },
    {
      "inputs": [
        {
          "internalType": "uint256",
          "name": "",
          "type": "uint256"
        }
      ],
      "name": "reports",
      "outputs": [
        {
          "internalType": "uint256",
          "name": "id",
          "type": "uint256"
        },
        {
          "internalType": "string",
          "name": "patientName",
          "type": "string"
        },
        {
          "internalType": "string",
          "name": "doctorName",
          "type": "string"
        },
        {
          "internalType": "string",
          "name": "reportType",
          "type": "string"
        },
        {
          "internalType": "string",
          "name": "description",
          "type": "string"
        },
        {
          "internalType": "string",
          "name": "date",
          "type": "string"
        }
      ],
      "stateMutability": "view",
      "type": "function",
      "constant": true
    },
    {
      "inputs": [
        {
          "internalType": "string",
          "name": "_name",
          "type": "string"
        },
        {
          "internalType": "uint256",
          "name": "_age",
          "type": "uint256"
        },
        {
          "internalType": "string",
          "name": "_gender",
          "type": "string"
        },
        {
          "internalType": "string",
          "name": "_bloodType",
          "type": "string"
        }
      ],
      "name": "addPatient",
      "outputs": [],
      "stateMutability": "nonpayable",
      "type": "function"
    },
    {
      "inputs": [
        {
          "internalType": "string",
          "name": "_patientName",
          "type": "string"
        },
        {
          "internalType": "string",
          "name": "_doctorName",
          "type": "string"
        },
        {
          "internalType": "string",
          "name": "_reportType",
          "type": "string"
        },
        {
          "internalType": "string",
          "name": "_description",
          "type": "string"
        },
        {
          "internalType": "string",
          "name": "_date",
          "type": "string"
        }
      ],
      "name": "addReport",
      "outputs": [],
      "stateMutability": "nonpayable",
      "type": "function"
    },
    {
      "inputs": [
        {
          "internalType": "uint256",
          "name": "_patientId",
          "type": "uint256"
        }
      ],
      "name": "getPatientReportIds",
      "outputs": [
        {
          "internalType": "uint256[]",
          "name": "",
          "type": "uint256[]"
        }
      ],
      "stateMutability": "view",
      "type": "function",
      "constant": true
    },
    {
      "inputs": [
        {
          "internalType": "uint256",
          "name": "_reportId",
          "type": "uint256"
        }
      ],
      "name": "getReportById",
      "outputs": [
        {
          "internalType": "string",
          "name": "",
          "type": "string"
        },
        {
          "internalType": "string",
          "name": "",
          "type": "string"
        },
        {
          "internalType": "string",
          "name": "",
          "type": "string"
        },
        {
          "internalType": "string",
          "name": "",
          "type": "string"
        },
        {
          "internalType": "string",
          "name": "",
          "type": "string"
        }
      ],
      "stateMutability": "view",
      "type": "function",
      "constant": true
    }
  ],
  "bytecode": "0x608060405234801561001057600080fd5b506116d1806100206000396000f3fe608060405234801561001057600080fd5b50600436106100885760003560e01c806369081bee1161005b57806369081bee1461012b57806393119a8314610147578063a0303c411461017b578063c942adf71461019957610088565b8063185c6f841461008d5780631ca9da80146100ab57806333f0d5ea146100db57806345a05bfb146100f7575b600080fd5b6100956101ce565b6040516100a29190610cf5565b60405180910390f35b6100c560048036038101906100c09190610d50565b6101d4565b6040516100d29190610e3b565b60405180910390f35b6100f560048036038101906100f09190610fa3565b610241565b005b610111600480360381019061010c9190610d50565b610361565b6040516101229594939291906110dd565b60405180910390f35b61014560048036038101906101409190611153565b61069c565b005b610161600480360381019061015c9190610d50565b6107ba565b60405161017295949392919061125a565b60405180910390f35b610183610988565b6040516101909190610cf5565b60405180910390f35b6101b360048036038101906101ae9190610d50565b61098e565b6040516101c5969594939291906112c2565b60405180910390f35b60035481565b606060008083815260200190815260200160002060050180548060200260200160405190810160405280929190818152602001828054801561023557602002820191906000526020600020905b815481526020019060010190808311610221575b50505050509050919050565b6002600081548092919061025490611375565b91905055506040518060c001604052806002548152602001858152602001848152602001838152602001828152602001600067ffffffffffffffff81111561029f5761029e610e78565b5b6040519080825280602002602001820160405280156102cd5781602001602082028036833780820191505090505b50815250600080600254815260200190815260200160002060008201518160000155602082015181600101908161030491906115c9565b5060408201518160020155606082015181600301908161032491906115c9565b50608082015181600401908161033a91906115c9565b5060a0820151816005019080519060200190610357929190610c72565b5090505050505050565b60608060608060606000600160008881526020019081526020016000206040518060c0016040529081600082015481526020016001820180546103a3906113ec565b80601f01602080910402602001604051908101604052809291908181526020018280546103cf906113ec565b801561041c5780601f106103f15761010080835404028352916020019161041c565b820191906000526020600020905b8154815290600101906020018083116103ff57829003601f168201915b50505050508152602001600282018054610435906113ec565b80601f0160208091040260200160405190810160405280929190818152602001828054610461906113ec565b80156104ae5780601f10610483576101008083540402835291602001916104ae565b820191906000526020600020905b81548152906001019060200180831161049157829003601f168201915b505050505081526020016003820180546104c7906113ec565b80601f01602080910402602001604051908101604052809291908181526020018280546104f3906113ec565b80156105405780601f1061051557610100808354040283529160200191610540565b820191906000526020600020905b81548152906001019060200180831161052357829003601f168201915b50505050508152602001600482018054610559906113ec565b80601f0160208091040260200160405190810160405280929190818152602001828054610585906113ec565b80156105d25780601f106105a7576101008083540402835291602001916105d2565b820191906000526020600020905b8154815290600101906020018083116105b557829003601f168201915b505050505081526020016005820180546105eb906113ec565b80601f0160208091040260200160405190810160405280929190818152602001828054610617906113ec565b80156106645780601f1061063957610100808354040283529160200191610664565b820191906000526020600020905b81548152906001019060200180831161064757829003601f168201915b505050505081525050905080602001518160400151826060015183608001518460a00151955095509550955095505091939590929450565b600360008154809291906106af90611375565b91905055506040518060c0016040528060035481526020018681526020018581526020018481526020018381526020018281525060016000600354815260200190815260200160002060008201518160000155602082015181600101908161071791906115c9565b50604082015181600201908161072d91906115c9565b50606082015181600301908161074391906115c9565b50608082015181600401908161075991906115c9565b5060a082015181600501908161076f91906115c9565b50905050600080600254815260200190815260200160002060050160035490806001815401808255809150506001900390600052602060002001600090919091909150555050505050565b60006020528060005260406000206000915090508060000154908060010180546107e3906113ec565b80601f016020809104026020016040519081016040528092919081815260200182805461080f906113ec565b801561085c5780601f106108315761010080835404028352916020019161085c565b820191906000526020600020905b81548152906001019060200180831161083f57829003601f168201915b505050505090806002015490806003018054610877906113ec565b80601f01602080910402602001604051908101604052809291908181526020018280546108a3906113ec565b80156108f05780601f106108c5576101008083540402835291602001916108f0565b820191906000526020600020905b8154815290600101906020018083116108d357829003601f168201915b505050505090806004018054610905906113ec565b80601f0160208091040260200160405190810160405280929190818152602001828054610931906113ec565b801561097e5780601f106109535761010080835404028352916020019161097e565b820191906000526020600020905b81548152906001019060200180831161096157829003601f168201915b5050505050905085565b60025481565b60016020528060005260406000206000915090508060000154908060010180546109b7906113ec565b80601f01602080910402602001604051908101604052809291908181526020018280546109e3906113ec565b8015610a305780601f10610a0557610100808354040283529160200191610a30565b820191906000526020600020905b815481529060010190602001808311610a1357829003601f168201915b505050505090806002018054610a45906113ec565b80601f0160208091040260200160405190810160405280929190818152602001828054610a71906113ec565b8015610abe5780601f10610a9357610100808354040283529160200191610abe565b820191906000526020600020905b815481529060010190602001808311610aa157829003601f168201915b505050505090806003018054610ad3906113ec565b80601f0160208091040260200160405190810160405280929190818152602001828054610aff906113ec565b8015610b4c5780601f10610b2157610100808354040283529160200191610b4c565b820191906000526020600020905b815481529060010190602001808311610b2f57829003601f168201915b505050505090806004018054610b61906113ec565b80601f0160208091040260200160405190810160405280929190818152602001828054610b8d906113ec565b8015610bda5780601f10610baf57610100808354040283529160200191610bda565b820191906000526020600020905b815481529060010190602001808311610bbd57829003601f168201915b505050505090806005018054610bef906113ec565b80601f0160208091040260200160405190810160405280929190818152602001828054610c1b906113ec565b8015610c685780601f10610c3d57610100808354040283529160200191610c68565b820191906000526020600020905b815481529060010190602001808311610c4b57829003601f168201915b5050505050905086565b828054828255906000526020600020908101928215610cae579160200282015b82811115610cad578251825591602001919060010190610c92565b5b509050610cbb9190610cbf565b5090565b5b80821115610cd8576000816000905550600101610cc0565b5090565b6000819050919050565b610cef81610cdc565b82525050565b6000602082019050610d0a6000830184610ce6565b92915050565b6000604051905090565b600080fd5b600080fd5b610d2d81610cdc565b8114610d3857600080fd5b50565b600081359050610d4a81610d24565b92915050565b600060208284031215610d6657610d65610d1a565b5b6000610d7484828501610d3b565b91505092915050565b600081519050919050565b600082825260208201905092915050565b6000819050602082019050919050565b610db281610cdc565b82525050565b6000610dc48383610da9565b60208301905092915050565b6000602082019050919050565b6000610de882610d7d565b610df28185610d88565b9350610dfd83610d99565b8060005b83811015610e2e578151610e158882610db8565b9750610e2083610dd0565b925050600181019050610e01565b5085935050505092915050565b60006020820190508181036000830152610e558184610ddd565b905092915050565b600080fd5b600080fd5b6000601f19601f8301169050919050565b7f4e487b7100000000000000000000000000000000000000000000000000000000600052604160045260246000fd5b610eb082610e67565b810181811067ffffffffffffffff82111715610ecf57610ece610e78565b5b80604052505050565b6000610ee2610d10565b9050610eee8282610ea7565b919050565b600067ffffffffffffffff821115610f0e57610f0d610e78565b5b610f1782610e67565b9050602081019050919050565b82818337600083830152505050565b6000610f46610f4184610ef3565b610ed8565b905082815260208101848484011115610f6257610f61610e62565b5b610f6d848285610f24565b509392505050565b600082601f830112610f8a57610f89610e5d565b5b8135610f9a848260208601610f33565b91505092915050565b60008060008060808587031215610fbd57610fbc610d1a565b5b600085013567ffffffffffffffff811115610fdb57610fda610d1f565b5b610fe787828801610f75565b9450506020610ff887828801610d3b565b935050604085013567ffffffffffffffff81111561101957611018610d1f565b5b61102587828801610f75565b925050606085013567ffffffffffffffff81111561104657611045610d1f565b5b61105287828801610f75565b91505092959194509250565b600081519050919050565b600082825260208201905092915050565b60005b8381101561109857808201518184015260208101905061107d565b60008484015250505050565b60006110af8261105e565b6110b98185611069565b93506110c981856020860161107a565b6110d281610e67565b840191505092915050565b600060a08201905081810360008301526110f781886110a4565b9050818103602083015261110b81876110a4565b9050818103604083015261111f81866110a4565b9050818103606083015261113381856110a4565b9050818103608083015261114781846110a4565b90509695505050505050565b600080600080600060a0868803121561116f5761116e610d1a565b5b600086013567ffffffffffffffff81111561118d5761118c610d1f565b5b61119988828901610f75565b955050602086013567ffffffffffffffff8111156111ba576111b9610d1f565b5b6111c688828901610f75565b945050604086013567ffffffffffffffff8111156111e7576111e6610d1f565b5b6111f388828901610f75565b935050606086013567ffffffffffffffff81111561121457611213610d1f565b5b61122088828901610f75565b925050608086013567ffffffffffffffff81111561124157611240610d1f565b5b61124d88828901610f75565b9150509295509295909350565b600060a08201905061126f6000830188610ce6565b818103602083015261128181876110a4565b90506112906040830186610ce6565b81810360608301526112a281856110a4565b905081810360808301526112b681846110a4565b90509695505050505050565b600060c0820190506112d76000830189610ce6565b81810360208301526112e981886110a4565b905081810360408301526112fd81876110a4565b9050818103606083015261131181866110a4565b9050818103608083015261132581856110a4565b905081810360a083015261133981846110a4565b9050979650505050505050565b7f4e487b7100000000000000000000000000000000000000000000000000000000600052601160045260246000fd5b600061138082610cdc565b91507fffffffffffffffffffffffffffffffffffffffffffffffffffffffffffffffff82036113b2576113b1611346565b5b600182019050919050565b7f4e487b7100000000000000000000000000000000000000000000000000000000600052602260045260246000fd5b6000600282049050600182168061140457607f821691505b602082108103611417576114166113bd565b5b50919050565b60008190508160005260206000209050919050565b60006020601f8301049050919050565b600082821b905092915050565b60006008830261147f7fffffffffffffffffffffffffffffffffffffffffffffffffffffffffffffffff82611442565b6114898683611442565b95508019841693508086168417925050509392505050565b6000819050919050565b60006114c66114c16114bc84610cdc565b6114a1565b610cdc565b9050919050565b6000819050919050565b6114e0836114ab565b6114f46114ec826114cd565b84845461144f565b825550505050565b600090565b6115096114fc565b6115148184846114d7565b505050565b5b818110156115385761152d600082611501565b60018101905061151a565b5050565b601f82111561157d5761154e8161141d565b61155784611432565b81016020851015611566578190505b61157a61157285611432565b830182611519565b50505b505050565b600082821c905092915050565b60006115a060001984600802611582565b1980831691505092915050565b60006115b9838361158f565b9150826002028217905092915050565b6115d28261105e565b67ffffffffffffffff8111156115eb576115ea610e78565b5b6115f582546113ec565b61160082828561153c565b600060209050601f8311600181146116335760008415611621578287015190505b61162b85826115ad565b865550611693565b601f1984166116418661141d565b60005b8281101561166957848901518255600182019150602085019450602081019050611644565b868310156116865784890151611682601f89168261158f565b8355505b6001600288020188555050505b50505050505056fea2646970667358221220c99378d6a38082a56dc09c51efb93f3f8fa3e9144d5a0bcecdff1e2164d1ce0564736f6c63430008130033",
  "immutableReferences": {},
  "source": "// SPDX-License-Identifier: GPL-3.0\r\npragma solidity >=0.7.0 <0.9.0;\r\n\r\ncontract EHR {\r\n    struct Patient {\r\n        uint id;\r\n        string name;\r\n        uint age;\r\n        string gender;\r\n        string bloodType;\r\n        uint[] reportIds;\r\n    }\r\n    \r\n    struct Report {\r\n        uint id;\r\n        string patientName;\r\n        string doctorName;\r\n        string reportType;\r\n        string description;\r\n        string date;\r\n    }\r\n    \r\n    mapping (uint => Patient) public patients;\r\n    mapping (uint => Report) public reports;\r\n    \r\n    uint public patientCount;\r\n    uint public reportCount;\r\n    \r\n    function addPatient(string memory _name, uint _age, string memory _gender, string memory _bloodType) public {\r\n        patientCount++;\r\n        patients[patientCount] = Patient(patientCount, _name, _age, _gender, _bloodType, new uint[](0));\r\n    }\r\n    \r\n    function addReport(string memory _patientName, string memory _doctorName, string memory _reportType, string memory _description, string memory _date) public {\r\n        reportCount++;\r\n        reports[reportCount] = Report(reportCount, _patientName, _doctorName, _reportType, _description, _date);\r\n        patients[patientCount].reportIds.push(reportCount);\r\n    }\r\n    \r\n    function getPatientReportIds(uint _patientId) public view returns (uint[] memory) {\r\n        return patients[_patientId].reportIds;\r\n    }\r\n    \r\n    function getReportById(uint _reportId) public view returns (string memory, string memory, string memory, string memory, string memory) {\r\n        Report memory r = reports[_reportId];\r\n        return (r.patientName, r.doctorName, r.reportType, r.description, r.date);\r\n    }\r\n}",
  "sourcePath": "C:\\Users\\admin\\Downloads\\kettering\\playground\\new_ehr\\contracts\\EHR.sol",
  "compiler": {
    "name": "solc",
    "version": "0.8.19+commit.7dd6d404.Emscripten.clang"
  },
  "schemaVersion": "3.4.13",
  "updatedAt": "2023-06-07T17:52:07.502Z",
  "networkType": "ethereum",
  "devdoc": {
    "kind": "dev",
    "methods": {},
    "version": 1
  },
  "userdoc": {
    "kind": "user",
    "methods": {},
    "version": 1
  }
}